:020000040800F2
:10000000FC0F0020991D0008093A0008153A000865
:100010001B3A0008213A0008273A000800000000B7
:100020000000000000000000000000002D3A000861
:10003000393A000800000000453A0008B92B0008D2
:10004000F91D0008F91D0008F91D0008F91D000838
:10005000F91D0008F91D0008F91D0008F91D000828
:10006000F91D0008F91D0008F91D0008F91D000818
:10007000F91D0008F91D0008F91D0008F91D000808
:10008000F91D0008F91D0008F91D0008F91D0008F8
:10009000513A0008F91D0008F91D0008F91D000873
:1000A000F91D0008F91D0008F91D0008F91D0008D8
:1000B000A92D0008F91D0008F91D0008F91D000808
:1000C000F91D0008F91D0008F91D0008F91D0008B8
:1000D000F91D0008F91D0008F91D0008F91D0008A8
:1000E000F91D0008F91D0008F91D000800000000B6
:1000F0000000000000000000000000000000000000
:1001000000000000000000005FF808F110B5054C89
:10011000237833B9044B13B10448AFF300800123B3
:10012000237010BD5405002000000000AC950008AD
:100130000C4B43B10C4810B50C49AFF300800C4890
:10014000036823B910BD0A48036833B97047094BE7
:10015000002BF7D0BDE810401847064B002BF5D018
:10016000184700BF00000000AC95000858050020AB
:10017000500500200000000080B582B000AF0346AB
:10018000FB80FB88002B05D1084B1B6801221A82DB
:10019000002306E0064B1B681B689847034B1B684F
:1001A0000A3318460837BD4680BD00BF880A0020C4
:1001B000840A002080B500AF0F4B1B68DA780F4B24
:1001C0005B789A4215D80C4B1B689B78002B10D19A
:1001D000094B1B689B88002B0BD1074B1B68064AF9
:1001E0001268D2789A72064B1B685B6898470023A6
:1001F00000E00223184680BD880A00201C00002071
:10020000840A002080B582B000AF0346FB80FB88E3
:10021000002B05D1084B1B6801221A82002306E03F
:10022000064B1B689B689847034B1B680C331846AA
:100230000837BD4680BD00BF880A0020840A002020
:1002400080B582B000AF1D4B1B689B691C4A1268C9
:1002500050791B4A1268D278114698470346FB71C1
:10026000174B1B689B7A002B23D0FB79002B09D1FD
:10027000134B1B681B79002B04D1114B1B689B7817
:10028000002B01D0022315E0FB79002B11D10D4B7F
:100290001B68DB6898470A4B1B68094A1268527949
:1002A000DA72074B1B68064A1268D2781A73002369
:1002B00000E0022318460837BD4680BD600A0020D2
:1002C000880A0020840A002080B584B000AF03466D
:1002D000FB80FB88002B05D1464B1B6802221A824B
:1002E000002382E0444B00221A80424B1B681B789B
:1002F00003F07F03002B2CD13E4B1B685B7A7B7392
:100300007B7B03F02003002B07D03B4B1B7843F093
:100310000203DAB2384B1A7006E0374B1B7823F031
:100320000203DAB2344B1A707B7B03F04003002BDC
:1003300007D0314B1B7843F00103DAB22E4B1A7011
:100340004EE02D4B1B7823F00103DAB22A4B1A70D2
:1003500046E0284B1B681B7803F07F03012B01D17B
:10036000254B42E0234B1B681B7803F07F03022BD5
:1003700034D1204B1B685B79FB73FB7B03F00F03CD
:10038000BB7397F90F30002B13DABB7B9B0003F193
:10039000804303F5B8431B689BB203F03003102B76
:1003A0001ED1154B1B7843F00103DAB2124B1A70C1
:1003B00016E0BB7B9B0003F1804303F5B8431B6849
:1003C0009BB203F44053B3F5805F09D10A4B1B780D
:1003D00043F00103DAB2084B1A7001E0002304E095
:1003E000064B1B681B699847034B18461037BD46E0
:1003F00080BD00BF880A0020BC090020840A0020BC
:1004000090B587B000AF6F4B1B681B7803F07F037C
:100410003B613B69002B0AD16A4B1B68694A126831
:10042000527A22F02002D2B25A720023C6E03B690F
:10043000022B40F0C280634B1B685B88002B04D109
:10044000604B1B681B79002B01D00223B6E05E4B8A
:10045000FB605C4B1B685B79BB60BB6823F080036F
:100460007B607B683B60574B1B685B795BB2002B02
:100470000BDA3B689B0003F1804303F5B8431B682C
:100480009BB203F030037B610AE03B689B0003F101
:10049000804303F5B8431B689BB203F440537B6170
:1004A000FB681B781A467B689A4207D97B69002B48
:1004B00004D0444B1B689B7A002B01D102237DE0C2
:1004C000BB6803F08003002B17D03B689B0003F14F
:1004D000804303F5B8431B689BB203F03003102B35
:1004E00065D13B68DBB2184601F01BFB3B68DBB211
:1004F0003021184601F000FA59E03B689B0003F1F7
:10050000804303F5B8431B689BB203F44053B3F533
:10051000805F4CD13B68002B27D13B68DAB22B4B74
:1005200093F82C309BB21946104601F0BDFB3B6896
:100530009B0003F1804303F5B8431B689BB223F48F
:10054000804323F070039CB284F480539CB284F403
:1005500000539CB23B689B0003F1804303F5B84312
:100560001B4A224392B21A6021E03B68DBB2184674
:1005700001F0AAFA3B689B0003F1804303F5B843FE
:100580001B689BB223F4804323F070039CB284F475
:1005900080539CB284F400539CB23B689B0003F1EF
:1005A000804303F5B8430A4A224392B21A60094BCA
:1005B0001B685B699847002300E0022318461C373C
:1005C000BD4690BD880A00201C00002020000020AD
:1005D0008080FFFF840A002090B585B000AF3F4BBC
:1005E0001B685B79BB60BB6823F080037B607B6822
:1005F0003B603A4B1B685B795BB2002B0BDA3B68C4
:100600009B0003F1804303F5B8431B689BB203F0E2
:100610003003FB600AE03B689B0003F1804303F575
:10062000B8431B689BB203F44053FB602C4B1B7810
:100630001A463B689A420CD9284B1B685B88002BF2
:1006400007D1FB68002B04D0244B1B689B7A002B3E
:1006500001D102233EE0BB6803F08003002B1AD0D7
:100660003B689B0003F1804303F5B8431B689BB2D2
:1006700023F4E04323F040039CB284F010039CB2C7
:100680003B689B0003F1804303F5B843154A2243BE
:1006900092B21A6019E03B689B0003F1804303F5B6
:1006A000B8431B689BB223F4804323F070039CB2D1
:1006B00084F480539CB23B689B0003F1804303F5B4
:1006C000B843084A224392B21A60074B1B689B69E1
:1006D0009847002318461437BD4690BD880A00206D
:1006E0001C0000208080FFFF840A002080B500AF3E
:1006F000074B1B68064A1268527A42F02002D2B2B7
:100700005A72044B1B68DB6998470023184680BD6A
:10071000880A0020840A002080B485B000AF034618
:100720003960FB800D4B1B685B8AFB60FB88002BEC
:100730000AD10A4B1B683A689188FA6892B28A1A01
:1007400092B21A82002303E03B681A68FB681344E4
:1007500018461437BD4680BC704700BF880A002089
:1007600080B584B000AF3A4B1B681033BB60BB68E8
:100770001B887B60BB689B68002B2DD07B68002B9F
:100780002AD0BB689B88FB60FA687B689A4201D9D3
:100790007B68FB60BB689B68FA6892B2104698471A
:1007A0003860BB681A88FB689BB2D31A9AB2BB68E0
:1007B0001A80BB685A88FB689BB213449AB2BB6824
:1007C0005A80002001F038FA03461946FB689BB2B4
:1007D0001A46386807F0BDF9BB681B88002B0AD0A1
:1007E0001C4B4FF440521A800021002001F03EFAC9
:1007F000194B30221A80BB681A88BB689B889A42C2
:1008000004D3134B1B6803221A721DE0BB681B88BC
:10081000002B04D00E4B1B6805221A7214E0BB6833
:100820001B88002B10D10A4B1B6806221A720B4B37
:100830001B689BB21A460A4B13445B001A460023FE
:100840001360054B30221A8000BF1037BD4680BDB3
:10085000880A0020BE090020C0090020505C00402A
:100860000230002080B586B000AF3B4B1B681033D0
:10087000FB60FB681B88BB60374B1B681B7A7B6186
:10088000BB68002B1FD17B69042B1CD1334B1B7819
:10089000012B12D1324B1B689BB21A46314B1344C9
:1008A0005B001A46002313602F4B30221A8004236A
:1008B0007B612A4B00221A7045E007237B612A4B9B
:1008C00010221A803FE0FB689B883B61BA683B6955
:1008D0009A4201D8042300E002237B613A69BB6895
:1008E0009A4201D9BB683B61FB689B683A6992B246
:1008F000104698477860002001F084F903461946B5
:100900003B699BB21A46786807F0E9F83B699BB2ED
:100910001946002001F0AAF9FB681A883B699BB2CE
:10092000D31A9AB2FB681A80FB685A883B699BB25B
:1009300013449AB2FB685A800B4B30221A800B4B3F
:100940004FF440521A80044B1B687A69D2B21A7273
:1009500000BF1837BD4680BD880A00207005002002
:10096000505C004002300020C0090020BE09002079
:1009700080B584B000AF0223FB735D4B1B685B78CE
:100980007B605B4B1B681B7803F07F03002B56D109
:100990007B68092B04D1FFF70DFC0346FB7376E05F
:1009A0007B68052B1AD1524B1B68DB785BB2002B9E
:1009B0000EDB4F4B1B689B78002B09D14C4B1B68FF
:1009C0009B88002B04D14A4B1B689B7A002B02D0DA
:1009D0000823BB6082E00023FB7358E07B68032B95
:1009E00011D1434B1B68DB78012B09D1404B1B68AD
:1009F0009B88002B04D1FFF779FE0346FB7346E08A
:100A00000223FB7343E07B68012B40D1384B1B680A
:100A1000DB78012B10D1364B1B689B88002B0BD148
:100A2000334B1B685B7A03F02003002B04D0FFF7E5
:100A3000E7FC0346FB732AE00223FB7327E02C4B01
:100A40001B681B7803F07F03012B07D17B680B2BFE
:100A50001DD1FFF7F5FB0346FB7318E0244B1B6821
:100A60001B7803F07F03022B0FD17B68012B04D18D
:100A7000FFF7C6FC0346FB7309E07B68032B06D136
:100A8000FFF7AAFD0346FB7301E00223FB73FB7B28
:100A9000002B0ED0174B1B685B697A68D2B21046E8
:100AA00098470346FB73FB7B032B02D10923BB60F2
:100AB00014E0FB7B002B02D00823BB600EE0062372
:100AC000BB600D4B1B689BB21A460C4B13445B007A
:100AD0001A46002313600A4B30221A80044B1B680D
:100AE000BA68D2B21A7200BF1037BD4680BD00BFCF
:100AF000880A0020600A0020505C0040023000207C
:100B0000C009002080B58AB000AF944B1B685B78A9
:100B1000BB6100237B6200237B61BB69062B24D170
:100B20008E4B1B681B7803F07F03002B40F0D480B2
:100B30008A4B1B689B78FB74FB7C012B04D1884B90
:100B40001B68DB697B62C7E0FB7C022B04D1844B12
:100B50001B681B6A7B62BFE0FB7C032B40F0BC8000
:100B60007F4B1B685B6A7B62B6E0BB69002B78D168
:100B70007A4B1B685B88002B73D1784B1B68DB8832
:100B8000022B6ED1754B1B681B79002B69D1734BFF
:100B90001B681B7803F07F03002B07D16F4B1B688A
:100BA0009B88002B02D16F4B7B6294E06B4B1B68E0
:100BB0001B7803F07F03012B14D1694B1B689B69E1
:100BC000664A126852790021104698470346002B66
:100BD00040F08180614B1B689B7A002B7BD0614B7E
:100BE0007B6278E05D4B1B681B7803F07F03022B70
:100BF00071D15A4B1B685B7903F00F03FB60574BB5
:100C00001B685B7903F07003BB60544B1B685B7916
:100C10005BB2002B0BDAFB689B0003F1804303F50A
:100C2000B8431B689BB203F03003FB610AE0FB682A
:100C30009B0003F1804303F5B8431B689BB203F4A8
:100C40004053FB61484B1B781A46FB689A4242D9D5
:100C5000BB68002B3FD1FB69002B3CD0414B7B6232
:100C600039E0BB69082B09D13C4B1B681B7803F0AA
:100C70007F03002B30D13D4B7B622DE0BB690A2BFB
:100C80002AD1364B1B681B7803F07F03012B23D13D
:100C9000324B1B689B7A002B1ED0304B1B685B8845
:100CA000002B19D12D4B1B681B79002B14D12B4B1A
:100CB0001B68DB88012B0FD1294B1B689B69274AD6
:100CC000126852790021104698470346002B03D141
:100CD000274B7B6200E000BF7B6A002B0FD01F4BCD
:100CE0001B687A6992B25A821C4B1B687A6A9A61B5
:100CF0007B6A00209847002387F8233013E0184BC5
:100D00001B681B69154A12685278104698470346BB
:100D100087F8233097F82330032B04D10F4B1B683F
:100D200009221A7278E00D4B1B681B8A4FF6FF727E
:100D3000934204D1094B1B6809221A726CE097F8A0
:100D40002330022B04D0054B1B681B8A002B11D1CA
:100D5000024B1B6808221A725EE000BF880A00205E
:100D6000600A0020C90200081C0000207901000868
:100D7000050200082A4B1B681B785BB2002B42DA85
:100D8000274B1B68DB887B60254B1B681B8A1A4638
:100D90007B689A4205D9224B1B687A6892B21A8204
:100DA00026E01F4B1B681A8A1D4B1B68DB889A4282
:100DB0001ED21B4B1B681A8A1A4B1B6893F82C30E7
:100DC0009BB29A4203D2184B00221A7010E0144BC7
:100DD0001B681B8A134A126892F82C2093FBF2F1CD
:100DE00002FB01F29B1A002B02D10F4B01221A7059
:100DF0000B4B1B680B4A126892F82C2092B29A8215
:100E0000FFF730FD08E0064B1B6803221A72074B00
:100E10004FF440521A8000BF2837BD4680BD00BF46
:100E2000880A0020600A002070050020BE0900200A
:100E300090B583B000AF0123FB80304B1B689BB2A1
:100E40001A462F4B13445B001B689BB25B0003F1F7
:100E5000804303F5C0433B602A4B1B681B7A092B78
:100E600037D0284B1A683B68591C39601B781370BF
:100E7000244B1A683B68591C39601B7853703A68D8
:100E8000FB885B0013443B601E4B1C683B689A1C4C
:100E90003A601B88184600F067FF034663803A6893
:100EA000FB885B0013443B60164B1C683B689A1C34
:100EB0003A601B88184600F057FF0346A3803A6843
:100EC000FB885B0013443B600E4B1B683A6812883A
:100ED000DA800C4B1B6801221A720A4B1B68DB88F4
:100EE000002B02D1FFF744FD01E0FFF70BFE00F0FD
:100EF0008DF8034618460C37BD4690BD505C004047
:100F000004300020880A002080B582B000AF1F4B5B
:100F10001B681B7A7B607B68022B02D07B68042BEA
:100F200006D1FFF79FFC194B1B681B7A7B6021E001
:100F30007B68062B1CD1154B1B685B78052B10D1E9
:100F4000124B1B681B7803F07F03002B09D10F4B5A
:100F50001B68DB78184600F081F80D4B1B681B6A94
:100F600098470C4B1B689B68984708237B6001E0FF
:100F700008237B60054B1B687A68D2B21A7200F0B6
:100F800045F8034618460837BD4680BD880A00204C
:100F9000840A0020600A002080B582B000AF194B9F
:100FA0001B681B7A7B607B68022B02D07B68042B5A
:100FB00002D108237B6018E07B68032B02D07B689A
:100FC000052B06D1FFF7CCFB0E4B1B681B7A7B6011
:100FD0000BE07B68072B06D10B4B1B68DB6898473F
:100FE00008237B6001E008237B60064B1B687A685E
:100FF000D2B21A7200F00AF8034618460837BD4606
:1010000080BD00BF880A0020600A002080B500AFC4
:101010000E4B93F82C309BB21946002000F044FE92
:101020000B4B1B681B7A082B06D10A4B4FF48052DE
:101030001A80094B10221A80054B1B681B7A092B5A
:101040000CBF01230023DBB2184680BD2000002026
:10105000880A0020BE090020C009002080B485B0A5
:1010600000AF0346FB711A4B1B78BB600023FB608B
:101070001EE0FB68DBB29B0003F1804303F5B8433D
:10108000FA68D2B2920002F1804202F5B8421268C8
:1010900092B2114640F60F720A4042F4004242F00A
:1010A0008002F968C9B20A431A60FB680133FB6029
:1010B000FA68BB689A42DCD3064AFB7963F07F0387
:1010C000DBB2136000BF1437BD4680BC704700BF61
:1010D0001C0000204C5C004080B400AF00BFBD4647
:1010E00080BC704780B485B000AF78600023FB609F
:1010F00005E07B6801337B60FB680133FB607B6844
:101100001B78002BF5D1FB6818461437BD4680BC10
:101110007047000080B584B000AF786039607B68AC
:10112000BB60BB68002B02DA7B685B427B600023FC
:10113000FB60FB685A1CFA601A463B6898187A688C
:10114000184B83FB02139910D317C91A0B469B0047
:101150000B445B00D11ACBB23033DBB203707B6837
:10116000104A82FB03129210DB17D31A7B607B6854
:10117000002BDEDCBB68002B07DAFB685A1CFA6028
:101180001A463B6813442D221A70FB683A681344D0
:1011900000221A70386800F007F800BF1037BD460B
:1011A00080BD00BF6766666680B586B000AF7860B8
:1011B00000237B617868FFF795FF0346013B3B61A5
:1011C00018E07B697A6813441B78FB607B697A6856
:1011D00013443A6979680A4412781A703B697A684C
:1011E0001344FA68D2B21A707B6901337B613B69A0
:1011F000013B3B617A693B699A42E2DB00BF1837E9
:10120000BD4680BD80B485B000AF786039600023F2
:10121000FB817B681B88FB817B682E4A934213D03D
:101220007B682D4A93420FD07B68B3F1804F0BD07F
:101230007B682A4A934207D07B68294A934203D0AD
:101240007B68284A934208D1FB8923F07003FB8115
:101250003B685A88FB891343FB817B68224A93428F
:101260000CD07B68214A934208D0FB8923F4407359
:10127000FB813B68DA88FB891343FB817B68FA8931
:101280001A803B689A887B689A853B681A887B68D5
:101290001A857B680F4A93420FD07B680E4A9342AF
:1012A0000BD07B68124A934207D07B68114A934265
:1012B00003D07B68104A934204D13B681B7A9AB2F0
:1012C0007B681A867B6801229A8200BF1437BD466C
:1012D00080BC7047002C01400034014000040040F5
:1012E00000080040000C00400010004000140040C6
:1012F00000400140004401400048014080B483B0F8
:1013000000AF78600B46FB70FB78002B08D07B6841
:101310001B889BB243F001039AB27B681A8007E0F6
:101320007B681B889BB223F001039AB27B681A800A
:1013300000BF0C37BD4680BC704780B483B000AF9F
:1013400078600B467B8013467B707B78002B08D03F
:101350007B689B899AB27B8813439AB27B689A8197
:1013600009E07B689B899AB27B88DB439BB2134080
:101370009AB27B689A8100BF0C37BD4680BC70472B
:1013800080B483B000AF78600B467B807B88DB4302
:101390009AB27B681A8200BF0C37BD4680BC70478A
:1013A00080B485B000AF78600B467B800023FB7370
:1013B0000023BB8100237B817B681B8A9AB27B88D8
:1013C0001340BB817B689B899AB27B8813407B81E9
:1013D000BB89002B05D07B89002B02D00123FB7336
:1013E00001E00023FB73FB7B18461437BD4680BC2D
:1013F000704780B483B000AF78600B467B807B88F9
:10140000DB439AB27B681A8200BF0C37BD4680BCB2
:101410007047000090B583B000AF0023FB8062E10D
:10142000844B1B889BB2DBB203F00F03DAB2824B12
:101430001A70814B1B78002B40F008817F4B1B6892
:101440009AB27F4B1A807E4B1B889BB203F030030D
:101450009AB27C4B1A807A4B1B889BB203F44053A0
:101460009AB2774B1A80754B1B689BB24BF6BF74D0
:101470001C4084F4005484F020047049A2B2724BE2
:1014800013439BB20B606B4B1B889BB203F01003A2
:10149000002B3FD1694A694B1B689BB2194648F63D
:1014A0000F730B401360FFF72FFD644B1B689BB25B
:1014B0004BF6BF741C40624B1B889BB203F48053F5
:1014C0009BB2002B01D084F480545D4B1B889BB2EF
:1014D00003F400539BB2002B01D084F40054594B09
:1014E0001B889BB203F010039BB2002B01D084F049
:1014F0001004544B1B889BB203F020039BB2002BBB
:1015000001D084F020044D49A2B24F4B13439BB24B
:101510000B60F2E0494B1B689BB2FB80FB889BB2DF
:1015200003F40063002B3FD0444A444B1B689BB23A
:10153000194640F68F730B401360FFF779FC3F4B61
:101540001B689BB24BF6BF741C403D4B1B889BB283
:1015500003F480539BB2002B01D084F48054384BA9
:101560001B889BB203F400539BB2002B01D084F480
:101570000054344B1B889BB203F010039BB2002B2A
:1015800001D084F010042F4B1B889BB203F0200382
:101590009BB2002B01D084F020042849A2B22A4B30
:1015A00013439BB20B60A8E0FB889BB21BB2002BDD
:1015B00080F29980214A214B1B689BB2194640F664
:1015C0008F730B401360FFF7E7FC1C4B1B689BB24B
:1015D0004BF6BF741C401A4B1B889BB203F480531C
:1015E0009BB2002B01D084F48054154B1B889BB216
:1015F00003F400539BB2002B01D084F40054114B30
:101600001B889BB203F010039BB2002B01D084F027
:1016100010040C4B1B889BB203F020039BB2002BE1
:1016200001D084F020040549A2B2074B13439BB2BA
:101630000B6062E0D40B0020640A0020005C0040D4
:10164000BE090020C00900208080FFFF2C4B1B78C2
:101650009B0003F1804303F5B8431B689BB2FB80FA
:10166000FB889BB21BB2002B1BDA254B1B789B001F
:1016700003F1804303F5B843214A1278920002F146
:10168000804202F5B842126892B2114640F68F725B
:101690000A401A601A4B1B78013B1A4A52F8233051
:1016A0009847FB889BB203F08003002B1BD0144BA0
:1016B0001B789B0003F1804303F5B843104A12786E
:1016C000920002F1804202F5B842126892B21146CD
:1016D00048F60F720A401A60094B1B78013B0A4A10
:1016E00052F823309847094B1B689AB2084B1146B1
:1016F000198013B2002BFFF693AE0C37BD4690BD98
:10170000640A0020F8000020DC000020445C004057
:10171000D40B002080B500AF154A154B1B6843F071
:10172000010313601249124B5A68124B13404B606D
:101730000F4A0F4B1B6823F0847323F4803313602C
:101740000B4A0B4B1B6823F480231360084A084B99
:101750005B6823F4FE035360054B4FF41F029A604D
:1017600000F00CF8044B4FF000629A6000BF80BD9F
:10177000001002400000FFF800ED00E080B500AF6F
:1017800000F002F800BF80BD80B483B000AF00233A
:101790007B6000233B603A4A394B1B6843F480333B
:1017A0001360374B1B6803F400333B607B680133E5
:1017B0007B603B68002B03D17B68B3F5A06FF0D151
:1017C0002F4B1B6803F40033002B02D001233B6036
:1017D00001E000233B603B68012B4BD1294A294B98
:1017E0001B6843F010031360264A264B1B6823F046
:1017F00003031360234A234B1B6843F00203136067
:101800001F4A1F4B5B6853601D4A1D4B5B6853604A
:101810001B4A1B4B5B6843F480635360184A184BA8
:101820005B6823F47C135360154A154B5B6843F4E3
:10183000E8135360124A124B1B6843F08073136025
:1018400000BF0F4B1B6803F00073002BF9D00C4A4C
:101850000B4B5B6823F003035360094A084B5B683A
:1018600043F00203536000BF054B5B6803F00C03B9
:10187000082BF9D100BF0C37BD4680BC704700BFB4
:10188000001002400020024080B483B000AF034645
:10189000FB800549FA884FF6F87313400B6000BFD0
:1018A0000C37BD4680BC7047505C004080B483B0AC
:1018B00000AF03460A46FB711346BB80FB799B00D1
:1018C00003F1804303F5B843FA79920002F18042B4
:1018D00002F5B842126812B222F4EC4222F0700211
:1018E00011B2B7F904200A4312B292B21A6000BFD3
:1018F0000C37BD4680BC704790B482B000AF034641
:101900000A46FB711346BB80FB799B0003F18043C1
:1019100003F5B8431B689BB223F4E04323F0400374
:101920009CB2BB8803F010039BB2002B02D084F062
:1019300010039CB2BB8803F020039BB2002B02D0A3
:1019400084F020039CB2FB799B0003F1804303F5F4
:10195000B843044A224392B21A6000BF0837BD461A
:1019600090BC70478080FFFF90B482B000AF034608
:101970000A46FB711346BB80FB799B0003F1804351
:1019800003F5B8431B689BB223F4804323F0700334
:101990009CB2BB8803F480539BB2002B02D084F42A
:1019A00080539CB2BB8803F400539BB2002B02D03F
:1019B00084F400539CB2FB799B0003F1804303F550
:1019C000B843044A224392B21A6000BF0837BD46AA
:1019D00090BC70478080FFFF90B482B000AF034698
:1019E000FB71FB799B0003F1804303F5B8431B684F
:1019F0009BB223F4E04323F040039CB284F0100335
:101A00009CB284F020039CB2FB799B0003F18043DD
:101A100003F5B843044A224392B21A6000BF083764
:101A2000BD4690BC704700BF8080FFFF90B482B07D
:101A300000AF0346FB71FB799B0003F1804303F584
:101A4000B8431B689BB223F4804323F070039CB21D
:101A500084F480539CB284F400539CB2FB799B00C5
:101A600003F1804303F5B843044A224392B21A605B
:101A700000BF0837BD4690BC704700BF8080FFFFA5
:101A800080B483B000AF0346FB71FB799B0003F188
:101A9000804303F5B843FA79920002F1804202F5DF
:101AA000B842126811B240F60F620A4011B2054AFC
:101AB0000A4312B292B21A6000BF0C37BD4680BC16
:101AC000704700BF8080FFFF80B483B000AF034643
:101AD000FB71FB799B0003F1804303F5B8431B685E
:101AE0009BB203F48043002B16D0FB799B0003F1DB
:101AF000804303F5B843FA79920002F1804202F57F
:101B0000B842126892B2114640F60F720A4042F48F
:101B1000404242F080021A6000BF0C37BD4680BCD4
:101B2000704780B483B000AF0346FB71FB799B0024
:101B300003F1804303F5B8431B689BB203F04003F5
:101B4000002B16D0FB799B0003F1804303F5B843CB
:101B5000FA79920002F1804202F5B842126892B21C
:101B6000114640F60F720A4042F4004242F0C002B1
:101B70001A6000BF0C37BD4680BC704780B483B08C
:101B800000AF03460A46FB711346BB800B4B1B6834
:101B90009BB21A46FB79DB00134403F1005303F5B3
:101BA00040535B001A46BB885B089BB25B00136026
:101BB00000BF0C37BD4680BC704700BF505C004082
:101BC00080B483B000AF03460A46FB711346BB8066
:101BD0000A4B1B689BB21A46FB79DB001A44084B80
:101BE00013445B001A46BB885B089BB25B00136022
:101BF00000BF0C37BD4680BC704700BF505C004042
:101C00000430002080B483B000AF0346FB71094B61
:101C10001B689BB21A46FB79DB00134403F10053A7
:101C200003F540535B001B689BB218460C37BD465A
:101C300080BC7047505C004080B483B000AF034666
:101C4000FB71084B1B689BB21A46FB79DB001A44F8
:101C5000054B13445B001B689BB218460C37BD460E
:101C600080BC7047505C00400430002080B483B0DA
:101C700000AF03460A46FB711346BB80084B1B6846
:101C80009BB21A46FB79DB001A44064B13445B00F7
:101C90001A46BB88136000BF0C37BD4680BC704736
:101CA000505C00400230002080B485B000AF034695
:101CB0000A46FB711346BB801A4B1B689BB21A463F
:101CC000FB79DB001A44184B13445B00BB60BB88F4
:101CD0003E2B12D9BB885B09FB81BB8803F01F0335
:101CE000002B02D1FB89013BFB81FB899B0243F462
:101CF00000431A46BB681A600FE0BB885B08FB8193
:101D0000BB8803F00103002B02D0FB890133FB8168
:101D1000FB899B021A46BB681A6000BF1437BD4698
:101D200080BC7047505C00400630002080B483B017
:101D300000AF0346FB710A4B1B689BB21A46FB7946
:101D4000DB001A44074B13445B001B689BB2C3F3D0
:101D500009039BB218460C37BD4680BC704700BFD4
:101D6000505C00400630002080B485B000AF0346D0
:101D7000FB80FB88FB73FB881B0A9BB21AB2FB7BC0
:101D80001B021BB213431BB2BB81BB89184614371D
:101D9000BD4680BC7047000080B582B000AF114BDB
:101DA0007B60114B3B6007E03B681A1D3A607A6824
:101DB000111D796012681A603B680C4A9342F3D394
:101DC0000B480C494FF000028842B8BF40F8042B82
:101DD000FADBFFF79FFC00F05FFF00BF0837BD464E
:101DE00080BD00BFAC950008000000205405002015
:101DF00054050020FC0B002080B400AFFEE700007B
:101E000080B483B000AF03463960FB7197F90730A7
:101E1000002B0BDA0D49FB7903F00F03043B3A6802
:101E2000D2B21201D2B20B441A7609E0084997F9EE
:101E300007303A68D2B21201D2B20B4483F80023C1
:101E400000BF0C37BD4680BC704700BF00ED00E00E
:101E500000E100E080B582B000AF78607B68B3F14C
:101E6000807F01D3012311E00A4A7B6823F07F437E
:101E7000013B53600F214FF0FF30FFF7C1FF054BCF
:101E800000229A60034B07221A6000231846083785
:101E9000BD4680BD10E000E080B596B000AF00F018
:101EA000E3FF4FF4803001F00DF801F039F80346FC
:101EB00087F8573097F85730012B2CD1102001F0BC
:101EC0008BFD022001F06CFD002001F0A9F800203C
:101ED00001F0DEF84FF4806001F0BEF84FF44040AE
:101EE00001F000F94FF4E0114FF4803001F040F8B8
:101EF000012001F05BF800BF392001F055FA0346DC
:101F0000002BF9D0022001F061F800BF01F07AF84F
:101F10000346082BFAD16948FFF79CFF012145F2DF
:101F20000D2001F0C9F90121012001F0A7F9644A4F
:101F3000634B5B6843F0007353604FF6FF73A7F881
:101F40005030102387F85330032387F8523007F1BD
:101F5000500319465B4800F0EEF948F2FC13A7F86D
:101F60005030102387F85330032387F8523007F19D
:101F700050031946544800F0DEF9A023A7F850306A
:101F8000182387F85330032387F8523007F15003A2
:101F900019464D4800F0CFF94C4805F0E1FC1023FC
:101FA000A7F848300023A7F842300023A7F84430B0
:101FB0004FF40073A7F846300023A7F840304FF4E1
:101FC0004043BB870023A7F84A304FF48273FB8756
:101FD00007F13C0319463D4805F0FCFC01220221B3
:101FE0003A4805F059FD3A4801F09CFD394B3B61F8
:101FF000394B7B611023BB610823FB6100233B62EB
:1020000080237B620023BB620023FB6200233B63CF
:102010004FF440537B630023BB6307F11003194661
:102020002B4801F03BFE0121284805F016FD012157
:10203000012001F05FF91C233B7301237B73002314
:10204000BB730123FB7307F10C03184604F00EFF6A
:102050004FF461633B8000237B800D23BB80002312
:10206000FB8000233B723B4619464FF08040FFF750
:10207000C9F801214FF08040FFF740F901214FF0EE
:102080008040FFF77DF9012201214FF08040FFF7EA
:1020900054F901214FF08040FFF772F900F088F801
:1020A00000F08CF800F0BCF800F04AFD01F0D6FC1E
:1020B00004F0C0FD00BF5837BD4680BD4019010087
:1020C00000000140000C01400008014000300140C8
:1020D000300002400C3001408C0B002080B582B0F3
:1020E00000AF2F4B1B78052B1FD0062B3AD0042BAB
:1020F0004FD12B4B05221A702A4B04221A70002351
:10210000FB7109E0FB790133FA792749895C254A9B
:10211000D154FB790133FB71FB791F2BF2D92122BA
:102120002049812001F0F2FB33E01D4B06221A709A
:102130001C4B05221A700023BB710AE0BB790133E6
:10214000BA7920321849895C164AD154BB790133D7
:10215000BB71BB791F2BF1D921221249812001F0DB
:10216000D5FB16E00E4B04221A700E4B06221A7095
:102170000E4B1A780B4B5A700A4B0022DA70094B3F
:10218000DA78084B9A7004220649812001F0BEFBE0
:1021900000BF0120FFF720FC00BF0837BD4680BD0F
:1021A0001A000020C80900208C0B0020AD09002077
:1021B00080B400AF00BFBD4680BC704780B500AFA3
:1021C000002000F081FF01214FF4000001F092F89F
:1021D00000BF80BD80B400AF034B03221A6000BF74
:1021E000BD4680BC704700BF7405002080B483B03A
:1021F00000AF094B7B607B689B7A002B03D0074BB9
:1022000005221A6002E0054B01221A6000BF0C375C
:10221000BD4680BC704700BF680A002074050020DE
:1022200080B582B000AF4FF4C06004F00DFE1423FF
:102230003B7101237B710023BB710123FB713B1DAB
:10224000184604F013FE00BF0837BD4680BD80B4B9
:1022500083B000AF0346FB7100BF0C37BD4680BCA6
:102260007047000080B584B000AF0F4B1B68FB6067
:102270000E4B1B68BB600E4B1B687B60FA687B686B
:102280001344FB60FB68002B09D008220949F86859
:1022900000F014F804220849B86800F00FF800BFF5
:1022A0001037BD4680BD00BFE8F7FF1FECF7FF1FEA
:1022B000F0F7FF1F020000201200002080B487B05A
:1022C00000AFF860B9601346FB710023FB75002373
:1022D000FB7527E0FB681B0F092B0BD8FB7D5B0010
:1022E0001A46BB681344FA68120FD2B23032D2B227
:1022F0001A700AE0FB7D5B001A46BB681344FA685B
:10230000120FD2B23732D2B21A70FB681B01FB60D7
:10231000FB7D5B000133BA68134400221A70FB7D19
:102320000133FB75FA7DFB799A42D3D300BF1C378A
:10233000BD4680BC704780B489B000AF786039601A
:102340000023FB6100233B610023BB610023FB6092
:1023500000237B610023BB603B68DB7803F00F0345
:10236000FB613B68DB7803F01003002B05D03B6872
:102370009B781A46FB691343FB613B681B88DBB201
:10238000002B44D07B681B687B610023BB6138E075
:102390000122BB6902FA03F3FB603B681B881A4603
:1023A000FB6813403B613A69FB689A4226D1BB69DE
:1023B0009B00FB600F22FB6802FA03F3BB60BB6863
:1023C000DB437A6913407B61FA69FB6802FA03F325
:1023D0007A6913437B613B68DB78282B05D10122A6
:1023E000BB699A407B685A6108E03B68DB78482B00
:1023F00004D10122BB699A407B681A61BB69013331
:10240000BB61BB69072BC3D97B687A691A603B68DB
:102410001B88FF2B46D97B685B687B610023BB610F
:102420003AE0BB690833012202FA03F3FB603B6820
:102430001B881A46FB6813403B613A69FB689A4265
:1024400027D1BB699B00FB600F22FB6802FA03F3F4
:10245000BB60BB68DB437A6913407B61FA69FB6848
:1024600002FA03F37A6913437B613B68DB78282B1C
:1024700005D1BB69083301229A407B685A613B68E9
:10248000DB78482B05D1BB69083301229A407B6871
:102490001A61BB690133BB61BB69072BC1D97B687A
:1024A0007A695A6000BF2437BD4680BC704780B44B
:1024B00083B000AF78600B467B807A887B681A61B6
:1024C00000BF0C37BD4680BC704780B483B000AFFE
:1024D00078600B467B807A887B685A6100BF0C3736
:1024E000BD4680BC7047000080B500AFFFF7BAFE64
:1024F000064B1B6800229A7200F042FA01F0EEF9D6
:10250000034B00221A6000BF80BD00BF880A002074
:102510007405002080B500AF2B4B1B6800229A7217
:10252000294B1B680022DA72274B1B68274AD27995
:102530005A720020FFF7A8F94FF400710020FFF74E
:10254000B5F910210020FFF7D7F918210020FFF777
:1025500037FB58210020FFF711FB0020FFF790FA0E
:102560001B4B93F82C309BB219460020FFF79CFBC5
:102570000020FFF75BFA4FF4C0610120FFF796F9E6
:102580004FF480710120FFF7F9FA4FF4A071012098
:10259000FFF716FB40210120FFF768FB0221012015
:1025A000FFF782FB4FF440510120FFF7DDF92021B6
:1025B0000120FFF7A1F90020FEF750FD054B012295
:1025C0001A6000BF80BD00BF880A0020608E00082E
:1025D000200000207405002080B483B000AF074BBA
:1025E0007B607B689B7A002B02D0054B05221A602A
:1025F00000BF0C37BD4680BC704700BF680A002092
:102600007405002080B400AF034B04221A6000BFA1
:10261000BD4680BC704700BF7405002080B483B005
:1026200000AF2A4B1B785B00DAB2284B1A70274B9D
:102630001B781F2B02D9254B01221A70244B1B78C3
:10264000022B1ED0032B37D0012B00D039E0002302
:10265000FB7109E0FB79FA7901321D49895C1D4A59
:10266000D154FB790133FB71FB791F2BF2D9174B46
:102670005B790133DAB2154B5A71174B02221A708B
:102680001FE00023BB710AE0BB792033BA79013225
:102690000F49895C0F4AD154BB790133BB71BB79B7
:1026A0001F2BF1D9094B9B790133DAB2074B9A7191
:1026B000094B02221A7004E0054B5A78064B1A7037
:1026C00000BF00BF0C37BD4680BC7047B80000207B
:1026D000140A00208C0B00208405002080B400AF79
:1026E000084B5B785B00DAB2064B5A70054B5B789F
:1026F0001F2B02D9034B01225A7000BFBD4680BC7C
:10270000704700BFB800002080B584B000AF03461A
:10271000FB710023FB60FB79062B1BD1234B1B684D
:102720001B7803F07F03012B14D1204B1B685B79CE
:10273000002B0FD11D4B1B689B78222B02D11C4B09
:10274000FB601DE0194B1B689B78212B18D1194B9E
:10275000FB6015E0154B1B681B7803F07F03212BF2
:102760000FD1FB79032B02D0092B03D009E0124BC8
:10277000FB6006E0114BFB60114B09221A7000E070
:1027800000BFFB68002B01D102230BE0074B1B6845
:10279000FA689A61054B1B6800225A82FB68002088
:1027A0009847002318461037BD4680BD880A002090
:1027B000B1280008D528000851290008C5270008BD
:1027C0007105002080B483B000AF0346FB80FB8816
:1027D000002B05D1054B1B6840221A82002300E024
:1027E000034B18460C37BD4680BC7047880A002052
:1027F000140A002080B582B000AF0346FB71094B7C
:102800001B681B7803F07F03212B06D1FB790B2B70
:1028100003D100F089F8034600E002231846083788
:10282000BD4680BD880A002080B582B000AF034657
:10283000FB80FB8804491846FDF76EFF03461846E7
:102840000837BD4680BD00BF7400002080B582B04F
:1028500000AF0346FB80FB8804491846FDF75CFF88
:10286000034618460837BD4680BD00BF7C000020E7
:1028700080B584B000AF0346FB800B4B1B68DB7850
:10288000FB73FB7B042B01D9002309E0FB7BDB00FE
:10289000064A1A44FB8811461846FDF73DFF0346D9
:1028A00018461037BD4680BD880A002094000020DD
:1028B00080B582B000AF0346FB80FB880449184610
:1028C000FDF72AFF034618460837BD4680BD00BF06
:1028D0008400002080B582B000AF0346FB80FB88F7
:1028E00004491846FDF718FF034618460837BD4649
:1028F00080BD00BF8C00002080B483B000AF0346D1
:102900000A46FB711346BB71BB79002B01D0022331
:1029100005E0FB79002B01D0022300E000231846DC
:102920000C37BD4680BC704780B483B000AF064B07
:102930001B68DB78FB71FB79044A1360002318469F
:102940000C37BD4680BC7047880A0020100A002062
:1029500080B483B000AF0346FB80FB88002B05D119
:10296000054B1B6801221A82002300E0034B184626
:102970000C37BD4680BC7047880A0020100A002032
:1029800080B582B000AF0120FFF761FC0123FB801E
:102990000C4AFB8813600C4B00221A80094B0A4A30
:1029A00012881A60094B00221A60074B4FF4E0525C
:1029B0001A80044B044A12881A600023184608370C
:1029C000BD4680BD405C00408C0A0020445C004055
:1029D00080B582B000AF0D4B1B68FB80FB8843F0D5
:1029E0000803FB80094AFB881360084B1B68FB80C7
:1029F000FB8843F00403FB80044AFB881360FFF765
:102A0000E9FB00BF0837BD4680BD00BF405C004009
:102A100080B582B000AF0A4B1B68FB80FB8823F0B7
:102A20000403FB80064AFB881360FFF7DFFB044BBF
:102A30004FF43F421A6000BF0837BD4680BD00BF5B
:102A4000405C004080B584B000AF0346FB71FB7969
:102A5000072B02D0384AFB791370374B1B78DBB257
:102A6000052B5DD801A252F823F000BF852A00088B
:102A7000912A00089D2A0008AB2A0008CB2A0008EA
:102A8000ED2A0008FFF7C4FF2B4B06221A704EE018
:102A9000FFF7BEFF284B04221A7048E0264B0222A3
:102AA0005A70254B03221A7041E0234B5B78DBB24E
:102AB000013BDAB2204B5A701F4B5B78DBB2002B24
:102AC00032D11D4B04221A702EE01C4B1B68FB8177
:102AD000FB8943F01003FB81184AFB891360164BF6
:102AE00005221A70144B0A225A7020E0124B5B78B0
:102AF000DBB2013BDAB2104B5A700F4B5B78DBB2A2
:102B0000002B13D10D4B1B68FB81FB8923F01003B5
:102B1000FB810A4AFB891360074B06221A7005E005
:102B2000054B06221A7002E000BF00E000BF00BFA4
:102B30001037BD4680BD00BF580A0020405C0040F1
:102B400080B500AF094B0A4A1A60084B1B68022285
:102B50001A72084B084A1A60084B094A1A60054B5A
:102B60001B681B68984700BF80BD00BF880A002013
:102B7000680A0020600A002020000020840A00204B
:102B80005000002080B400AFBFF34F8F00BFBD46A0
:102B900080BC704780B500AF0549054BDB6803F486
:102BA000E062044B1343CB60FFF7ECFFFEE700BF8E
:102BB00000ED00E00400FA0580B500AF2E4B1B6865
:102BC000002B04D02C4B1B68013B2B4A13602B4B72
:102BD0001B78002B0BD02A4B1B889BB2002B06D0F6
:102BE000274B1B889BB2013B9AB2254B1A80234B83
:102BF0001B78002B06D0224B1B889BB2002B01D1E7
:102C000004F026FE1F4B1B78002B0BD01E4B1B889D
:102C10009BB2002B06D01C4B1B889BB2013B9AB287
:102C2000194B1A80174B1B78002B06D0164B1B88AC
:102C30009BB2002B01D103F019FA144B1B889BB2F5
:102C4000002B06D0114B1B889BB2013B9AB20F4B55
:102C50001A800F4B1B68052B01D1FFF73FFA0D4B74
:102C60001B68B3F5FA4F04D20A4B1B680133094ABB
:102C7000136000BF80BD00BF8005002078050020E4
:102C80007A050020790500207C0500207E050020C3
:102C900074050020900A0020B0B594B000AFFFF793
:102CA000FBF8384B1B68052B01D1FFF717FA364BA1
:102CB0003C1D1D460FCD0FC40FCD0FC40FCD0FC44B
:102CC00095E8070084E80700304BFB64304B1B7825
:102CD000002B03D02E4B1B78012BE2D12D4B1B7800
:102CE000002B09D02C4B1B7883F00103DBB2002BA7
:102CF000D7D0FB6C9847D4E703F0F6FF03461A469B
:102D0000264BA3FB0213D9080B461B015B1AD31AEF
:102D10009BB2DAB2224B1A70214B1B781A4607F18C
:102D2000400319461046FEF7F5F907F140031D4927
:102D3000184604F013FD174B1B78002B07D0194BD6
:102D4000DB7843F01003DAB2164BDA7006E0154B6D
:102D5000DB7823F01003DAB2124BDA7004F050F98A
:102D60000D4B1B7883F00103DBB2002B99D00C4B89
:102D70001B789B0007F15002134453F84C3C9847D2
:102D80008FE700BF740500201C8F0008A5680008AD
:102D90008405002085050020790500208988888821
:102DA00086050020B800002080B500AF01214FF05B
:102DB0008040FEF7F5FA0346002B49D0254B1B78DF
:102DC0000133DAB2234B1A70224B1B78072B38D908
:102DD000204B00221A702049204804F0D1FA1E4BE3
:102DE0001B7803F00103002B01D0FFF7D3FE1A4B31
:102DF0001B7803F00203002B03D00221184803F0D4
:102E000011F9154B1B7803F00403002B19D0154B57
:102E10001B7883F00103DAB2124B1A70114B1B7846
:102E2000002B07D00D4BDB7843F01003DAB20B4BCD
:102E3000DA7006E0094BDB7823F01003DAB2074BB7
:102E4000DA7004F075F801214FF08040FEF7D1FAF6
:102E500000BF80BD870500208E0A0020B80000203A
:102E6000588F00088505002080B400AF134A134B2B
:102E70001B6843F0010313601049104B5A68104B54
:102E800013404B600D4A0D4B1B6823F0847323F4F1
:102E900080331360094A094B1B6823F480231360B5
:102EA000064A064B5B6823F4FE035360034B4FF462
:102EB0001F029A6000BFBD4680BC704700100240F0
:102EC0000000FFF880B483B000AF7860134A134B62
:102ED0001B6823F480331360104A104B1B6823F4E3
:102EE000802313607B68B3F5803F03D0B3F5802F58
:102EF00007D00DE0094A094B1B6843F48033136087
:102F000006E0064A054B1B6843F4A023136000BF8C
:102F100000BF0C37BD4680BC704700BF00100240A8
:102F200080B582B000AF00233B600023FB7100231B
:102F3000BB71312000F038FA0346BB713B680133A6
:102F40003B603B68B3F5A06F02D0BB79002BF0D09B
:102F5000312000F029FA0346002B02D00123FB7137
:102F600001E00023FB71FB7918460837BD4680BDA0
:102F700080B485B000AF786039600023FB600A4BF5
:102F80005B68FB60FB6823F47C13FB607A683B683A
:102F90001343FA681343FB60034AFB68536000BFA6
:102FA0001437BD4680BC70470010024080B483B027
:102FB00000AF0346FB71044AFB79136000BF0C3776
:102FC000BD4680BC704700BF6000424280B485B0FF
:102FD00000AF78600023FB60094B5B68FB60FB6817
:102FE00023F00303FB60FA687B681343FB60044A29
:102FF000FB68536000BF1437BD4680BC704700BFFC
:103000000010024080B400AF044B5B68DBB203F0F9
:103010000C03DBB21846BD4680BC7047001002406E
:1030200080B485B000AF78600023FB60094B5B681B
:10303000FB60FB6823F0F003FB60FA687B681343D6
:10304000FB60044AFB68536000BF1437BD4680BC78
:10305000704700BF0010024080B485B000AF7860B8
:103060000023FB60094B5B68FB60FB6823F4E063B3
:10307000FB60FA687B681343FB60044AFB6853609B
:1030800000BF1437BD4680BC704700BF001002402F
:1030900080B485B000AF78600023FB60094B5B68AB
:1030A000FB60FB6823F46053FB607B68DB00FA681D
:1030B0001343FB60034AFB68536000BF1437BD46EF
:1030C00080BC70470010024080B483B000AF7860CD
:1030D000034A7B68136000BF0C37BD4680BC704755
:1030E000D800424280B485B000AF78600023FB6016
:1030F000094B5B68FB60FB6823F44043FB60FA68A4
:103100007B681343FB60044AFB68536000BF1437BD
:10311000BD4680BC704700BF0010024080B487B03D
:1031200000AF786000237B6100233B610023FB60DC
:103130000023BB604C4B5B6803F00C037B617B6935
:10314000042B07D0082B09D0002B33D17B68474ACA
:103150001A6033E07B68454A1A602FE0424B5B6897
:1031600003F470133B61404B5B6803F48033FB60F6
:103170003B699B0C02333B61FB68002B06D13B692A
:103180003B4A02FB03F27B681A6017E0364B5B6830
:1031900003F40033002B06D03B69354A02FB03F2EF
:1031A0007B681A600AE03B69304A02FB03F27B68E5
:1031B0001A6003E07B682D4A1A6000BF2A4B5B68E7
:1031C00003F0F0037B617B691B097B61294A7B6902
:1031D00013441B78DBB2BB607B681A68BB68DA40BB
:1031E0007B685A60204B5B6803F4E0637B617B691A
:1031F0001B0A7B611F4A7B6913441B78DBB2BB60EF
:103200007B685A68BB68DA407B689A60164B5B68DB
:1032100003F460537B617B69DB0A7B61154A7B6940
:1032200013441B78DBB2BB607B685A68BB68DA402A
:103230007B68DA600C4B5B6803F440437B617B691D
:103240009B0B7B610C4A7B6913441B78DBB2BB6030
:103250007B68DA68BB68B2FBF3F27B681A6100BF77
:103260001C37BD4680BC70470010024000127A0037
:1032700000093D00C0000020D000002080B483B0D1
:1032800000AF78600B46FB70FB78002B06D0094935
:10329000084B5A697B6813434B6106E00549054BAF
:1032A0005A697B68DB4313404B6100BF0C37BD4656
:1032B00080BC70470010024080B483B000AF7860DB
:1032C0000B46FB70FB78002B06D00949084B9A6926
:1032D0007B6813438B6106E00549054B9A697B685F
:1032E000DB4313408B6100BF0C37BD4680BC704789
:1032F0000010024080B483B000AF78600B46FB70D2
:10330000FB78002B06D00949084BDA697B68134328
:10331000CB6106E00549054BDA697B68DB43134066
:10332000CB6100BF0C37BD4680BC70470010024027
:1033300080B483B000AF78600B46FB70FB78002B45
:1033400006D00949084BDA687B681343CB6006E076
:103350000549054BDA687B68DB431340CB6000BF4F
:103360000C37BD4680BC70470010024080B483B06B
:1033700000AF78600B46FB70FB78002B06D0094944
:10338000084B1A697B6813430B6106E00549054B3E
:103390001A697B68DB4313400B6100BF0C37BD46E5
:1033A00080BC70470010024080B487B000AF034675
:1033B000FB710023FB6000237B610023FB74FB791E
:1033C0005B09DBB2FB60FB68012B03D1124B1B686E
:1033D0007B6109E0FB68022B03D10F4B1B6A7B6109
:1033E00002E00D4B5B6A7B61FB7903F01F03FB601E
:1033F0007A69FB6822FA03F303F00103002B02D081
:103400000123FB7401E00023FB74FB7C18461C378E
:10341000BD4680BC704700BF0010024080B485B03C
:1034200000AF786039600023FB600023FB727B688B
:103430005B68FB60FB6823F4702323F48073FB60FC
:103440003B681A683B681B791B021343FA681343F5
:10345000FB607B68FA685A607B689B68FB60FA686F
:10346000164B1340FB603B68DA683B689B681A4365
:103470003B685B795B001343FA681343FB607B682E
:10348000FA689A607B68DB6AFB60FB6823F4700370
:10349000FB603B681B7C013BDAB2FB7A1343FB7297
:1034A000FB7A1B05FA681343FB607B68FA68DA62F3
:1034B00000BF1437BD4680BC704700BFFDF7F1FF69
:1034C00080B483B000AF78600B46FB70FB78002BB4
:1034D00006D07B689B6843F001027B689A6005E038
:1034E0007B689B6823F001027B689A6000BF0C3701
:1034F000BD4680BC704780B483B000AF78600B4697
:10350000FB70FB78002B06D07B689B6843F4A0021D
:103510007B689A6005E07B689B6823F4A0027B6867
:103520009A6000BF0C37BD4680BC704780B485B040
:1035300000AF7860084611461A460346FB700B46FA
:10354000BB7013467B700023FB600023BB60FB78DD
:10355000092B23D97B68DB68FB60FB78A3F10A02A7
:1035600013465B001344072202FA03F3BB60BB68F7
:10357000DB43FA681340FB607978FB78A3F10A0219
:1035800013465B00134401FA03F3BB60FA68BB689F
:103590001343FB607B68FA68DA601EE07B681B6996
:1035A000FB60FA7813465B001344072202FA03F328
:1035B000BB60BB68DB43FA681340FB607978FA783C
:1035C00013465B00134401FA03F3BB60FA68BB685F
:1035D0001343FB607B68FA681A61BB78062B21D81D
:1035E0007B685B6BFB60BB785A1E13469B001344E1
:1035F0001F2202FA03F3BB60BB68DB43FA68134087
:10360000FB60F978BB785A1E13469B00134401FAFD
:1036100003F3BB60FA68BB681343FB607B68FA681E
:103620005A6347E0BB780C2B21D87B681B6BFB608F
:10363000BB78DA1F13469B0013441F2202FA03F3E0
:10364000BB60BB68DB43FA681340FB60F978BB786A
:10365000DA1F13469B00134401FA03F3BB60FA68B8
:10366000BB681343FB607B68FA681A6322E07B68DF
:10367000DB6AFB60BB78A3F10D0213469B00134489
:103680001F2202FA03F3BB60BB68DB43FA681340F6
:10369000FB60F978BB78A3F10D0213469B0013443D
:1036A00001FA03F3BB60FA68BB681343FB607B68F5
:1036B000FA68DA6200BF1437BD4680BC704780B438
:1036C00083B000AF78607B68DB6C9BB218460C3728
:1036D000BD4680BC704780B485B000AF78600B46B3
:1036E000FB700023FB737B681A68FB781340002B88
:1036F00002D00123FB7301E00023FB73FB7B184620
:103700001437BD4680BC704780B483B000AF78608A
:103710000B46FB70FB78DA437B681A6000BF0C37FE
:10372000BD4680BC7047000080B58CB000AF7860AB
:1037300039600023FB620023BB6200237B6200230D
:103740003B620023FB617B68FB617B681B8A9BB249
:10375000FB62FA6A4CF6FF731340FB623B68DB883E
:103760001A46FB6A1343FB62FB6A9AB27B681A82B1
:103770007B689B899BB2FB62FA6A4EF6F313134097
:10378000FB623B689A883B681B8913439AB23B688B
:103790005B8913439BB21A46FB6A1343FB62FB6AC5
:1037A0009AB27B689A817B689B8A9BB2FB62FA6AB9
:1037B0004FF6FF431340FB623B689B891A46FB6A46
:1037C0001343FB62FB6A9AB27B689A8207F1080393
:1037D0001846FFF7A3FCFB692E4A934202D17B698E
:1037E000BB6201E03B69BB627B689B899BB21BB2F9
:1037F000002B0CDABA6A13469B0013449A001A4451
:103800003B681B685B00B2FBF3F37B620BE0BA6AB8
:1038100013469B0013449A001A443B681B689B00A4
:10382000B2FBF3F37B627B6A1B4AA2FB03235B09B7
:103830001B01FB62FB6A1B09642202FB03F37A6A29
:10384000D31A3B627B689B899BB21BB2002B0CDABC
:103850003B6ADB003233104AA2FB03235B0903F00F
:103860000703FA6A1343FB620BE03B6A1B01323326
:10387000094AA2FB03235B0903F00F03FA6A13430F
:10388000FB62FB6A9AB27B681A8100BF3037BD4683
:1038900080BD00BF003801401F85EB5180B483B06C
:1038A00000AF78600B46FB70FB78002B08D07B687C
:1038B0009B899BB243F400539AB27B689A8107E0DC
:1038C0007B689B899BB223F400539AB27B689A81F0
:1038D00000BF0C37BD4680BC7047000080B400AF0D
:1038E000074B00221A60074B4FF43F421A80064BE9
:1038F000044A12881A6000231846BD4680BC7047EF
:10390000445C00408C0A0020405C004080B584B0DC
:1039100000AF0346B9607A60FB73FB7B03F07F0363
:10392000DBB21846FEF76EF9034619467B689BB278
:103930001A46B86804F0D3F8FB7B03F07F03DBB2D0
:103940007A6892B211461846FEF790F9002318469D
:103950001037BD4680BD80B584B000AF03463960E6
:10396000FB710023FB60FB7903F07F03DBB2184699
:10397000FEF7DCF90346FB60FB7903F07F03DBB263
:103980001846FEF759F903461946FB689BB21A46DA
:10399000386804F0DEF8FB6818461037BD4680BD75
:1039A00080B485B000AF78600023FB60094B1B68D2
:1039B000FB60FB6803F03803FB60FA687B68134325
:1039C000FB60044AFB68136000BF1437BD4680BC2F
:1039D000704700BF0020024080B483B000AF786021
:1039E000084A084B1B6823F0100313600549054B78
:1039F0001A687B6813430B6000BF0C37BD4680BC60
:103A0000704700BF0020024080B400AF00BFBD4639
:103A100080BC704780B400AFFEE780B400AFFEE723
:103A200080B400AFFEE780B400AFFEE780B400AF23
:103A300000BFBD4680BC704780B400AF00BFBD462C
:103A400080BC704780B400AF00BFBD4680BC7047EB
:103A500080B500AF04F0AAF800BF80BD80B586B085
:103A600000AF012144F20100FFF726FC4FF4C063D0
:103A7000BB821823FB750323BB7507F1140319469A
:103A80000E48FEF758FC4FF4E1337B6000233B8186
:103A900000237B810023BB8100233B820823FB8121
:103AA0003B1D19460648FFF73FFE01210448FFF77A
:103AB000F5FE00BF1837BD4680BD00BF00080140BD
:103AC0000038014080B400AF00BFBD4680BC7047E5
:103AD00080B500AF114B9B785B00DAB20F4B9A7048
:103AE0000E4B9B781F2B02D90C4B01229A700C496C
:103AF0000120FFF730FF094BDB780133DAB2074BC7
:103B0000DA70064B1B790133DAB2044B1A714FF4A9
:103B100040510120FDF728FF00BF80BDB800002004
:103B2000940A002080B483B000AF78607B681A6884
:103B30004FF6FE7313407A6813607B6800221A60A8
:103B40007B6800225A607B6800229A607B680022B2
:103B5000DA607B68434A934206D1434A424B5B6832
:103B600043F00F03536077E07B68404A934206D1ED
:103B70003D4A3D4B5B6843F0F00353606CE07B686B
:103B80003B4A934206D1384A374B5B6843F4706333
:103B9000536061E07B68374A934206D1324A324B28
:103BA0005B6843F47043536056E07B68324A93424B
:103BB00006D12D4A2C4B5B6843F4702353604BE0D5
:103BC0007B682E4A934206D1274A274B5B6843F411
:103BD0007003536040E07B68294A934206D1224A31
:103BE000214B5B6843F07063536035E07B68254A86
:103BF000934206D1244A244B5B6843F00F03536081
:103C00002AE07B68214A934206D11F4A1E4B5B681B
:103C100043F0F00353601FE07B681D4A934206D1D6
:103C2000194A194B5B6843F47063536014E07B6876
:103C3000184A934206D1144A134B5B6843F470430D
:103C4000536009E07B68144A934205D10E4A0E4B3B
:103C50005B6843F47023536000BF0C37BD4680BCE3
:103C6000704700BF08000240000002401C000240F4
:103C70003000024044000240580002406C00024004
:103C80008000024008040240000402401C0402407C
:103C900030040240440402405804024080B485B01D
:103CA00000AF786039600023FB607B681B68FB60B5
:103CB000FB6823F4FF4323F07003FB603B689A68C2
:103CC0003B681B6A1A433B681B691A433B685B6984
:103CD0001A433B689B691A433B68DB691A433B689C
:103CE0005B6A1A433B689B6A1343FA681343FB60A1
:103CF0007B68FA681A603B68DA687B685A603B68E0
:103D00001A687B689A603B685A687B68DA6000BF13
:103D10001437BD4680BC704780B483B000AF786074
:103D20000B46FB70FB78002B06D07B681B6843F0CA
:103D300001027B681A6006E07B681A684FF6FE7322
:103D400013407A68136000BF0C37BD4680BC7047D3
:103D500080B483B000AF78600B467B807A887B6844
:103D60005A6000BF0C37BD4680BC704780B483B03A
:103D700000AF0346FB80094B1B78022B08D0084A92
:103D8000FB88138000BF064B1B88002BFBD100E093
:103D900000BF0C37BD4680BC704700BF84050020C3
:103DA0007E050020B0B500AF174B00221A8024E03A
:103DB00003F026F902F078FF0346DBB203F00703B5
:103DC000DCB202F071FF0346DBB203F00703DDB2A1
:103DD00002F06AFF0346DBB203F00703DBB21A46C8
:103DE0002946204603F024F93220FFF7BFFF064B97
:103DF0001B8801339AB2044B1A80034B1B88452B56
:103E0000D6D900BFB0BD00BFD40A002090B585B0A0
:103E100000AF5C4B00221A80AAE05B4B1B88B3F515
:103E2000007F6AD303F0ECF80023FB8107E0FB89F5
:103E30005649FA8921F81320FB890133FB81FB895C
:103E4000B3F5007FF3D30023BB814EE00023FB7268
:103E50000CE0FC7A02F028FF0346DAB207F1100307
:103E6000234403F8102CFB7A0133FB72FB7A032BFB
:103E7000EFD93B781A464FF47A7303FB02F27B7852
:103E80001946642303FB01F31A44BB7819460B4619
:103E90009B000B445B001344FA781A44BB89C3F5BA
:103EA000007342F20F7191FBF3F3013392FBF3F3D2
:103EB0009AB2BB8913443B813B89C3F308033B811E
:103EC0003B89324A32F81330FB803B89BA892F494B
:103ED00031F812102D4A22F81310BB892B49FA88A9
:103EE00021F81320BB890133BB81BB89B3F5007F67
:103EF000ACD3254B00221A8005E0234B1B880133ED
:103F00009AB2214B1A80204B1B881A461F4B33F85C
:103F100012309B099BB2D8B21B4B1B881A461B4B15
:103F200033F81230DB089BB2DBB203F00703D9B2DF
:103F3000154B1B881A46154B33F81230DBB203F0D1
:103F40000703DBB21A4603F073F80F4B1B88104AC5
:103F5000A2FB0323DB089BB2C3F133039BB21846D9
:103F6000FFF704FF074B1B8801339AB2054B1A80F9
:103F7000044B1B88B3F5007FFFF44FAF00BF14372D
:103F8000BD4690BDD40A0020D60000208C0500203C
:103F9000CDCCCCCC80B582B000AF204B00221A80B3
:103FA00033E002F081FE0346DBB203F00703FB714E
:103FB00002F07AFE0346DBB203F00703BB7102F0A6
:103FC00073FE0346DBB203F007037B717A79B9799C
:103FD000FB79184603F0B0F90346012B06D17A7934
:103FE000B979FB79184603F069F805E07A79B9796F
:103FF000FB79184603F01CF81920FFF7B7FE074BB2
:104000001B8801339AB2054B1A80044B1B88B3F509
:10401000057FC6D900BF0837BD4680BDD40A002041
:10402000F0B587B004AF7B4B00221A80E9E07A4BF1
:104030001B780133DAB2784B1A700023FB7118E059
:1040400002F0DEFF744B1B7803F00103DBB2FA7958
:104050000293FB790193FB79009313460022002120
:10406000002000F0B1F98C20FFF780FEFB790133CE
:10407000FB71FB79072BE3D90023BB7118E002F039
:10408000BFFF654B1B7803F00103DBB2BA790293E3
:10409000BB790193BB7900931346072207210720C0
:1040A00000F092F98C20FFF761FEBB790133BB7100
:1040B000BB79072BE3D900237B711BE002F0A0FF43
:1040C0007B79C3F10703DAB2534B1B7803F001038A
:1040D000DBB202937B7901937B7900931346002234
:1040E0000021072000F070F98C20FFF73FFE7B795C
:1040F00001337B717B79072BE0D900233B711BE0F7
:1041000002F07EFF3B79C3F10703DAB2424B1B7822
:1041100003F00103DBB202933B7901933B790093F7
:10412000134607220721002000F04EF98C20FFF7EC
:104130001DFE3B7901333B713B79072BE0D900230E
:10414000FB702AE002F05CFFFB78C3F10303D8B2F6
:10415000FB78C3F10303DCB2FB78C3F10303DDB2E8
:10416000FB780433DEB2FB780433DBB2FA78043236
:10417000D2B22949097801F00101C9B20291019234
:10418000009333462A46214600F01EF94FF49670FC
:10419000FFF7ECFDFB780133FB70FB78032BD1D9E3
:1041A0000023BB7024E002F02BFFBB78C3F10703B0
:1041B000DEB2BB78C3F10703DBB2BA78C2F1070203
:1041C000D2B21549097801F00101C9B2BD78BC78B5
:1041D000B87802910192009333462A46214600F0B6
:1041E000F3F84FF49670FFF7C1FDBB780133BB7055
:1041F000BB78032BD7D9074B1B8801339AB2054BE9
:104200001A80044B1B88012B7FF611AF00BF0C37BF
:10421000BD46F0BDD40A00208C090020F0B587B05F
:1042200004AF654B00221A80BCE0644B1B783F2B27
:1042300058D10023FB714BE0FA79FB7903336049D5
:104240000020C8545E49C95C5D4B995414E0FC7968
:1042500002F02AFD0346DBB203F00703DAB2584B43
:104260001A55FB79DC1C02F01FFD0346DBB203F09C
:104270000703DAB2524B1A55FB79514AD35C1946FF
:10428000FB7903334E4AD35CCB1A002B0DDAFB7952
:104290004B4AD35C5B42FA79033249498A5C9342C8
:1042A00014BF01230023DBB20DE0FB79444AD35C49
:1042B0001946FB790333424AD35CCB1A022BD4BF95
:1042C00001230023DBB2002BC1D1FB790133FB7149
:1042D000FB79022BB0D9394B00221A704FF4487089
:1042E000FFF744FD0023BB7139E0344B1B781A46BD
:1042F000BB7942FA03F303F00103002B2CD1BB7905
:10430000304AD25CBB792E49CB5C9A4207D2BB794A
:104310002C4AD25C0132D1B22A4AD1541CE0BB797A
:10432000284AD25CBB792649CB5C9A4207D9BB7933
:10433000244AD25C013AD1B2224AD1540CE0BB7972
:10434000012202FA03F35AB21C4B1B785BB21343EF
:104350005BB2DAB2194B1A70BB790133BB71BB790E
:10436000052BC2D902F04CFE164B1878154B5C7821
:10437000144B9D78134BDE78124B1B79114A5279FE
:10438000002102910192009333462A46214600F013
:104390001BF83220FFF7EAFC074B1B8801339AB267
:1043A000054B1A80044B1B88632B7FF63EAF00BF82
:1043B0000C37BD46F0BD00BFD40A0020D800002055
:1043C000900900209809002090B587B000AF0446FE
:1043D000084611461A462346FB710346BB710B463D
:1043E0007B7113463B713B797B7497F828303B74A3
:1043F00097F82C30FB730023FB750023BB7500235B
:104400007B75FA793B799A4205D20123FB753B799A
:1044100001333B7104E0FF23FB753B79013B3B71AA
:10442000BA7997F828309A4207D20123BB7597F8DA
:104430002830013387F8283006E0FF23BB7597F852
:104440002830013B87F828307A7997F82C309A4247
:1044500007D201237B7597F82C30013387F82C3075
:1044600006E0FF237B7597F82C30013B87F82C3052
:104470007B793B755BE0BB79FB744FE0FB79BB74E8
:1044800044E097F83030002B36D1BA7CFB799A4261
:1044900003D0BA7C7B7C9A4207D1FA7CBB799A42E2
:1044A00023D0FA7C3B7C9A421FD0BA7CFB799A429B
:1044B00003D0BA7C7B7C9A4207D13A7D7B799A42C1
:1044C00013D03A7DFB7B9A420FD0FA7CBB799A429B
:1044D00003D0FA7C3B7C9A4214D13A7D7B799A4294
:1044E00003D03A7DFB7B9A420CD13A7DF97CBB7CB0
:1044F000184602F09DFD05E03A7DF97CBB7C18462C
:1045000002F096FDFA7DBB7C1344BB74BA7C3B7908
:104510009A42B6D1BA7DFB7C1344FB74FA7C97F8BF
:1045200028309A42AAD17A7D3B7D13443B753A7D6F
:1045300097F82C309A429ED100BF1C37BD4690BDE3
:1045400090B5A3B000AF3D4B00221A806EE000236F
:1045500087F8853002F0A8FB034687F8853002F023
:10456000A3FB03461A46364BA3FB021359080B461E
:104570005B000B44D31A9BB287F884303B1D40226A
:104580000021184604F078FB002387F8873012E0FA
:1045900097F8874002F088FB0346DBB203F007037D
:1045A000DAB207F18803234403F8442C97F88730E4
:1045B000013387F8873097F887303F2BE8D997F891
:1045C000853003F00103DBB207F14402391D97F88F
:1045D000840000F037F8002387F886300CE097F865
:1045E000863007F188021344072203F8442C97F819
:1045F0008630013387F8863097F886303F2BEED926
:104600004FF4FA70FFF7B2FB97F8853003F001031F
:10461000DBB207F14402391D97F8840000F012F86C
:10462000064B1B8801339AB2044B1A80034B1B883C
:10463000092B8CD900BF8C37BD4690BDD40A002011
:10464000ABAAAAAA80B586B000AFB9607A601A4654
:104650000346FB731346BB730023FB7569E000231D
:10466000BB7513E0BB7DBA6813441A78BB7D7968CB
:104670000B441B789A4206D2BB7DBA6813441A7861
:104680000132D2B21A70BB7D0133BB75BB7D3F2BAB
:10469000E8D902F0B5FC00237B7541E000233B75AF
:1046A00038E0BB7B002B0BD07B7DDA003B7D1344D5
:1046B0001A46BB6813441B78C3F107033B6108E04B
:1046C0007B7DDA003B7D13441A46BB6813441B789C
:1046D0003B61FB7B022B06D13B69DAB2397D7B7DE6
:1046E000184602F0A5FCFB7B012B06D13B69D9B231
:1046F0003A7D7B7D184602F09BFCFB7B002B06D1AC
:104700003B69DBB27A7D397D184602F091FC3B7D36
:1047100001333B753B7D072BC3D97B7D01337B7513
:104720007B7D072BBAD96420FFF720FBFB7D01338B
:10473000FB75FB7D072B92D900BF1837BD4680BDA6
:1047400090B583B000AF00237B6061E002F058FCBD
:104750000023FB7053E00023BB704AE0FB7818464F
:1047600004F026F80446BB78184604F021F8034606
:1047700022462B492A4800F05BF80346294918468F
:1047800004F06EF803461C467B68A3F11002134642
:104790005B011344184604F00FF8034619462046FF
:1047A00003F056FF0346184600F078F80346184613
:1047B00003F072FC4FF000021B4B03F0C1FC0346F8
:1047C0000C46184621464FF00002184B03F006FB3A
:1047D00003460C461846214603F0C4FE03467B7090
:1047E0007A78B978FB78184602F022FCBB7801335E
:1047F000BB70BB78072BB1D9FB780133FB70FB781A
:10480000072BA8D97820FFF7B1FA7B6801337B60CA
:104810007B68202B9ADD00BF0C37BD4690BD00BFE2
:104820000000604000000C4200000C4000001040FE
:10483000B0B584B000AFF860B9607A603B60796869
:10484000F86803F003FF03461C467968F86803F034
:10485000FDFE03461946204604F002F803461C46B6
:104860003968B86803F0F2FE03461D463968B86837
:1048700003F0ECFE03461946284603F0F1FF034619
:104880001946204603F0E4FE0346184600F019F9E5
:10489000034618461037BD46B0BD000080B584B051
:1048A00000AF78604FF07E53FB604FF000017868F6
:1048B00004F074F90346002B13D009E031497868FD
:1048C00003F0C6FE03467B60FB6883F00043FB6099
:1048D0004FF00001786804F061F90346002BEDD138
:1048E00018E02849786804F077F90346002B11D0C6
:1048F00009E02449786803F0A9FE03467B60FB6861
:1049000083F00043FB601F49786804F065F90346B3
:10491000002BEED11C49786804F040F90346002BC7
:104920000ED0786804F088F903469BB21A46174BFC
:1049300033F81230184603F03BFF0346BB6012E029
:104940007968104803F082FE0346184604F074F9B3
:1049500003469BB21A460D4B33F81230184603F04B
:1049600027FF0346BB60B968F86803F079FF034688
:104970004FF08941184604F027F8034618461037CF
:10498000BD4680BD000034430000B442A09400083E
:1049900080B584B000AF78603C49786803F056FE7B
:1049A00003467B604FF07E53FB604FF00001786858
:1049B00004F0F4F80346002B13D009E0344978687A
:1049C00003F046FE03467B60FB6883F00043FB6018
:1049D0004FF00001786804F0E1F80346002BEDD1B8
:1049E00018E02B49786804F0F7F80346002B11D043
:1049F00009E02749786803F029FE03467B60FB68DD
:104A000083F00043FB602249786804F0E5F8034630
:104A1000002BEED11D49786804F0C0F80346002B46
:104A20000ED0786804F008F903469BB21A46194B79
:104A300033F81230184603F0BBFE0346BB6012E0A9
:104A40007968134803F002FE0346184604F0F4F8B0
:104A500003469BB21A460F4B33F81230184603F048
:104A6000A7FE0346BB60FB6883F00043B9681846A5
:104A700003F0F6FE03464FF08941184603F0A4FF09
:104A8000034618461037BD4680BD00BF0000B44243
:104A900000003443A094000890B583B000AF786064
:104AA0007868FFF7FBFE04467868FFF771FF03465E
:104AB0001946204603F088FF034618460C37BD46CA
:104AC00090BD80B485B000AF78607B68FB60FB6808
:104AD0005B1003F1FE53FB60FB6818461437BD46BC
:104AE00080BC7047F0B585B000AF0023FB818EE03D
:104AF00002F086FA00237B737FE000233B7376E0AD
:104B0000FB895B00184603F057FE03461846FFF783
:104B1000C5FE03464FF08141184603F0A1FE03464F
:104B20003F49184603F094FD03461C46FB895B0091
:104B3000184603F041FE03461846FFF729FF0346D7
:104B40004FF08141184603F08BFE03463449184666
:104B500003F07EFD03461D467B7B184603F028FECE
:104B600006463B7B184603F023FE034632462946A1
:104B70002046FFF75DFEB8602A49B86803F070FE72
:104B800003461C46FB89A3F1100213465B01134444
:104B9000184603F011FE03461946204603F058FD5F
:104BA00003461846FFF77AFE0346184603F074FAE8
:104BB0004FF000021C4B03F0C3FA03460C461846A4
:104BC00021464FF00002194B03F008F903460C464A
:104BD0001846214603F0C6FC0346FB71FA79397B7F
:104BE0007B7B184602F024FA3B7B01333B733B7B13
:104BF000072B85D97B7B01337B737B7B072B7FF670
:104C00007CAF6420FFF7B2F8FB890133FB81FB899D
:104C1000B72B7FF66DAF00BF1437BD46F0BD00BFA8
:104C20000000604000000C4200000C4000001040FA
:104C300090B58BB002AF0023FB61D6E00023BB61CF
:104C4000C7E0F86903F0B8FD03466F49184603F062
:104C5000BBFE0346184603F01FFA69A3D3E90023FD
:104C600003F06EFA03460C461846214603F09AFC00
:104C700003461846FFF712FE03464FF080411846E0
:104C800003F0E6FC03464FF07E51184603F0E0FCCB
:104C900003467B61F86903F08FFD03465B491846C4
:104CA00003F092FE0346184603F0F6F954A3D3E945
:104CB000002303F045FA03460C461846214603F04C
:104CC00071FC03461846FFF7E9FD03464FF07E519D
:104CD000184603F0BDFC03464D49184603F0C0FDDD
:104CE00003464C49184603F0B3FC03463B61F869A0
:104CF00003F062FD03464849184603F065FE03468B
:104D00001C46B86903F058FD03467969184603F05C
:104D10005BFE03461946204603F09AFC0346FB60FF
:104D2000F86803F0B9F936A3D3E9002303F008FAD1
:104D300003460C461846214603F034FC0346184649
:104D4000FFF7ACFD03463969184603F089FD0346B9
:104D50004FF08141184603F07BFC0346BB60F868C6
:104D600003F09AF926A3D3E9002303F0E9F90346F7
:104D70000C461846214603F015FC03461846FFF77B
:104D800007FE03463969184603F06AFD03464FF0F3
:104D90008141184603F05CFC03467B60B9681F48FC
:104DA00003F054FC03467B60B86803F01FFF044621
:104DB000786803F01BFF03460193BB6900930A2345
:104DC0002246B9696FF0020000F080FABB69013336
:104DD000BB61BB69072B7FF734AF0A20FEF7C6FF24
:104DE00002F00EF9FB690133FB61FB69B3F57A7FD1
:104DF000FFF624AF00BF2437BD4690BDAFF300805F
:104E000085EB51B81EA54C400000C8420000484345
:104E10000000C04000004040000020420000E04090
:104E200080B588B000AF02237B6102233B614FF065
:104E3000FF33FB60FB68B3F1FF3F01D1072300E0C4
:104E40000023BB607B69DBB2C3F10903FB7101F096
:104E50002BFF03461A46FB7992FBF3F103FB01F3A8
:104E6000D31AFB7701F020FF03461A46FB7992FB29
:104E7000F3F103FB01F3D31ABB770023BB8395E067
:104E800001F012FF03461A464C4BA3FB02135908CC
:104E90000B465B000B44D31A9BB2DBB2013BDBB287
:104EA000BB7101F001FF03461A46444BA3FB0213FA
:104EB00059080B465B000B44D31A9BB2DBB2013B93
:104EC000DBB27B71FA7F97F906301344002B0ADDC1
:104ED000FA7F97F906301A44FB799A4203DABA79D5
:104EE000FB7F1344FB77BA7F97F905301344002BFF
:104EF0000ADDBA7F97F905301A44FB799A4203DA42
:104F00007A79BB7F1344BB773B69DBB2FA6852B254
:104F10001146184600F08CFD0023FB763CE0002390
:104F2000BB7632E03B69022B0CD1FA7FFB7E134447
:104F3000D8B2BA7FBB7E1344DBB2BA68D2B219468C
:104F400002F076F83B69012B0CD1FA7FFB7E13440B
:104F5000D8B2BB68D9B2BA7FBB7E1344DBB21A4663
:104F600002F066F83B69002B0CD1BB68D8B2BA7F5F
:104F7000FB7E1344D9B2FA7FBB7E1344DBB21A46E0
:104F800002F056F8BB7E0133BB76BA7E7B699A424B
:104F9000C8DBFB7E0133FB76FA7E7B699A42BEDB7F
:104FA0009620FEF7E3FEBB8B0133BB83BB8B632BE9
:104FB0007FF666AF00BF2037BD4680BDABAAAAAA68
:104FC00080B5A6B000AF6423C7F888300123C7F8C6
:104FD00084307D4B00221A80EDE001F065FE03462F
:104FE0001A467A4BA3FB021399080B465B000B444D
:104FF0005B00D31A9BB287F8833007F1400340224D
:105000000021184603F038FE0023C7F89030D7F887
:105010008430012B2CD126E001F066FE0346DBB282
:1050200003F03F0387F8823097F8823007F1980247
:10503000134413F8583C002B15D1D7F890300133A6
:10504000C7F8903097F8823097F8822007F19801DE
:105050000A4412F8582C0132D2B207F198010B44DD
:1050600003F8582C1DE0D7F890303F2BD4DD18E022
:10507000D7F88430022B14D1D7F890303F2B10DCB6
:10508000D7F890305A1CC7F8902007F198021A44BC
:1050900012F8582C0132D2B207F198010B4403F8F0
:1050A000582C0023C7F89430002387F88F3034E061
:1050B00097F88F3007F19802134413F8583C002BEF
:1050C00018D097F88F3007F19802134413F8583C22
:1050D000062B0FD897F88F3097F88F2007F198019B
:1050E0000A4412F8582C0132D2B207F198010B444D
:1050F00003F8582C97F88F3007F19802134413F8EF
:10510000583C072B04D1D7F894300133C7F89430BA
:1051100097F88F30013387F88F3097F88F303F2B17
:10512000C6D9D7F89430402B37D0002387F88E307B
:1051300021E097F88E20264B1B78002B07D197F89B
:105140008E3007F198010B4413F8583C09E097F8AA
:105150008E3007F198010B4413F8583CC3F1070354
:10516000DBB207F198010A4402F8983C97F88E30B8
:10517000013387F88E3097F88E303F2BD9D9D7F886
:1051800088309BB21846FEF7F1FD394697F8833018
:105190000022184600F01EF839E700BF0C4B1B78C0
:1051A00083F00103DAB20A4B1A70074B1B880133F4
:1051B0009AB2054B1A80044B1B88072B7FF60DAF64
:1051C00000BF9837BD4680BDD40A0020ABAAAAAA6A
:1051D0009F09002080B586B000AF0346B9607A60B1
:1051E000FB7301F00DFF0023FB7568E00023BB7526
:1051F0005FE0FB7B012B1BD97B68002B0BD0FB7D79
:10520000DA00BB7D13441A46BB6813441B78C3F114
:105210000703DBB207E0FB7DDA00BB7D13441A46CF
:10522000BB6813441B78B97DF87D1A4601F000FF76
:10523000FB7B012B1BD17B68002B0BD0FB7DDA00A5
:10524000BB7D13441A46BB6813441B78C3F10703A4
:10525000DBB207E0FB7DDA00BB7D13441A46BB6876
:1052600013441B78BA7DF87D194601F0E1FEFB7B03
:10527000002B1BD17B68002B0BD0FB7DDA00BB7DA4
:1052800013441A46BB6813441B78C3F10703DBB20F
:1052900007E0FB7DDA00BB7D13441A46BB6813446C
:1052A0001B78FA7DB97D184601F0C2FEBB7D013343
:1052B000BB75BB7D072B9CD9FB7D0133FB75FB7D4B
:1052C000072B93D900BF1837BD4680BD80B596B077
:1052D00000AFF860B9607A603B60FB683B61BB6817
:1052E0007B617B68BB613A68FB68D31ABB643A6E2A
:1052F000BB68D31A7B647A6E7B68D31A3B64BB6C41
:10530000002B02DA4FF0FF3300E00123FB637B6CDC
:10531000002B02DA4FF0FF3300E00123BB633B6C4C
:10532000002B02DA4FF0FF3300E001237B63BB6CFC
:10533000002BB8BF5B423B637B6C002BB8BF5B426A
:10534000FB623B6C002BB8BF5B42BB623B6B5B00FC
:105350007B62FB6A5B003B62BB6A5B00FB613A6B92
:10536000FB6A9A4245DB3A6BBB6A9A4241DB3A6A76
:105370003B6BD31A7B65FA693B6BD31A3B65002301
:1053800087F84F302FE03B69DBB27A69D1B2BA6956
:10539000D2B2184601F04CFE7B6D002B07DD7A6916
:1053A000BB6B13447B617A6D7B6AD31A7B653B6D63
:1053B000002B07DDBA697B6B1344BB613A6D7B6AD6
:1053C000D31A3B657A6D3B6A13447B653A6DFB6982
:1053D00013443B653A69FB6B13443B6197F84F30CC
:1053E000013387F84F3097F84F203B6B9A42CADB66
:1053F0008AE0FA6A3B6B9A4245DBFA6ABB6A9A42D8
:1054000041DB7A6AFB6AD31A7B65FA69FB6AD31AB5
:105410003B65002387F84E302FE03B69DBB27A69A9
:10542000D1B2BA69D2B2184601F002FE7B6D002BF0
:1054300007DD3A69FB6B13443B617A6D3B6AD31A13
:105440007B653B6D002B07DDBA697B6B1344BB6149
:105450003A6D3B6AD31A3B657A6D7B6A13447B6570
:105460003A6DFB6913443B657A69BB6B13447B61FE
:1054700097F84E30013387F84E3097F84E20FB6A8C
:105480009A42CADB40E03A6ABB6AD31A7B657A6A01
:10549000BB6AD31A3B65002387F84D302FE03B6988
:1054A000DBB27A69D1B2BA69D2B2184601F0C0FD56
:1054B0007B6D002B07DD7A69BB6B13447B617A6DD2
:1054C000FB69D31A7B653B6D002B07DD3A69FB6BEB
:1054D00013443B613A6DFB69D31A3B657A6D3B6AB5
:1054E00013447B653A6D7B6A13443B65BA697B6BF9
:1054F0001344BB6197F84D30013387F84D3097F86E
:105500004D20BB6A9A42CADB3B69DBB27A69D1B2F1
:10551000BA69D2B2184601F08BFD00BF5837BD46BC
:1055200080BD80B582B000AF01F06AFD0023FB7141
:105530001BE00023BB7112E001F0B6FB0346DBB2B7
:1055400003F00103DBB21A46D200D31ADAB2B979FA
:10555000FB79184601F06CFDBB790133BB71BB7957
:10556000072BE9D9FB790133FB71FB79072BE0D9D4
:10557000C820FEF7FBFB00BF0837BD4680BD00001A
:1055800080B582B000AFFFF7CCFF264B00221A8017
:1055900040E0254B1B78002B04D1234B01221A70CD
:1055A000FFF7BFFF01F080FB0346DBB203F0070308
:1055B000FB7101F079FB0346DBB203F00703BB711B
:1055C0001A4B1B78BA799A421ED0194B1B78FA797C
:1055D0009A4219D0B979FB790022184601F0ACFE45
:1055E0000346002B01D0002200E00722B979FB79A5
:1055F000184600F01FF80D4ABB7913700C4AFB796E
:1056000013705020FEF7B2FB064B1B8801339AB291
:10561000044B1A80034B1B88632BBAD900BF083791
:10562000BD4680BDD40A0020A0090020A1090020A9
:10563000A209002080B584B000AF0346FB710B4681
:10564000BB7113467B710023FB7329E07B79072B29
:1056500012D1FB7BC3F10803DAB2B979FB791846A2
:1056600001F02CFDFB7BC3F10703DAB2B979FB79BA
:10567000184601F0DDFC0DE0FB7B013BDAB2B979A5
:10568000FB79184601F01AFDFA7BB979FB791846C7
:1056900001F0CEFC3C20FEF769FBFB7B0133FB7382
:1056A000FB7B072BD2D900BF1037BD4680BD000061
:1056B00090B585B000AFA34B00221A80A3E1A24BA6
:1056C0001B78C3F10103DBB21A46D200D31A3B7137
:1056D0009E4B1B78012B00F0CA80022B00F01D812D
:1056E000002B40F07C810023FB7343E00023BB735D
:1056F0003AE0FB7B964AD35C1A46BB7B42FA03F343
:1057000003F00103002B15D0FB7BDA00BB7B1344B5
:10571000FA7BD100BA7B0A448E498A5C51B23A794D
:10572000012000FA02F252B20A4352B2D1B2894ABF
:10573000D15416E0FB7BDA00BB7B1344FA7BD1002B
:10574000BA7B0A4483498A5C51B23A79012000FA53
:1057500002F252B2D24352B20A4052B2D1B27D4AA0
:10576000D154BB7B0133BB73BB7B072BC1D9FB7B04
:105770000133FB73FB7B072BB8D900237B7315E048
:1057800001F092FA0346DBB203F00703DCB201F04A
:105790008BFA0346DBB203F00703DAB23B7921460A
:1057A000184601F045FC7B7B01337B737B7B9CB20D
:1057B00001F07AFA03461A46674BA3FB0213590815
:1057C0000B465B000B44D31A9BB29C42D8D30023F8
:1057D0003B7348E00023FB723FE03B7B5C4AD35CB9
:1057E0001A46FB7A42FA03F303F00103002B14BFBD
:1057F00001230023DBB2DB433A7BD100FA7A0A446F
:1058000054498A5C52B2D2B2D209D2B21340002BB0
:105810000FD03B7B3A7B4E498A5C51B2FA7A012029
:1058200000FA02F252B20A4352B2D1B2484AD154FB
:1058300010E03B7B3A7B46498A5C51B2FA7A012000
:1058400000FA02F252B2D24352B20A4052B2D1B27C
:105850003F4AD154FB7A0133FB72FB7A072BBCD948
:105860003B7B01333B733B7B072BB3D9B7E0002372
:10587000BB720BE0BB7ADA003B791344BA7A344945
:10588000895C344AD154BB7A0133BB72BB7A072B93
:10589000F0D900237B7215E001F006FA0346DBB273
:1058A00003F00703DCB201F0FFF90346DBB203F0BB
:1058B0000703DAB23B791946204601F0B9FB7B7A3F
:1058C00001337B727B7A9CB201F0EEF903461A46F3
:1058D000214BA3FB021359080B465B000B44D31A60
:1058E0009BB29C42D8D300233B7212E03B7A3A7AB7
:1058F00017498A5CD243D1B23A7AD0003A7902444D
:105900001448825C0A40D1B2114AD1543B7A013327
:105910003B723B7A072BE9D961E00023FB710BE076
:105920003B79DA00FB791344FA790949895C094A21
:10593000D154FB790133FB71FB79072BF0D900239C
:10594000BB7121E0D40A00208B050020D500002087
:10595000A40900208C0B0020ABAAAAAA01F0A4F98C
:105960000346DBB203F00703DCB201F09DF9034606
:10597000DBB203F00703DBB23A791946204601F0A7
:1059800057FBBB790133BB71BB799CB201F08CF939
:1059900003461A46204BA3FB021359080B465B0033
:1059A0000B44D31A9BB29C42D8D300237B7112E0E4
:1059B0007B797A7919498A5CD243D1B23A79D0009D
:1059C0007A7902441648825C0A40D1B2134AD15413
:1059D0007B7901337B717B79072BE9D900BF962056
:1059E000FEF7C4F90F4B1A780F4B1B78013BDBB263
:1059F0005BB21946104600F01BF80C4B1B880133B4
:105A00009AB20A4B1A80094B1B884F2B7FF657AE70
:105A100000BF1437BD4690BDABAAAAAAA4090020B6
:105A20008C0B0020D50000208B050020D40A00201C
:105A300080B584B000AF03460A46FB711346BB71C4
:105A40000023FB7378E097F90630B3F1FF3F04D0F1
:105A5000FB7BC3F10703DBB200E0FB7BBB720023DF
:105A6000BB7363E000237B735AE097F90630B3F110
:105A7000FF3F03D1BB7A0133DBB202E0BB7A013BCB
:105A8000DBB27B72FB79022B15D17A7A797BBB7BF7
:105A9000184601F051FC0346002B06D0BA7A797BF8
:105AA000BB7B184601F0C4FA05E0BA7A797BBB7B70
:105AB000184601F003FBFB79012B15D17A7B797A2B
:105AC000BB7B184601F038FC0346002B06D07A7BDE
:105AD000B97ABB7B184601F0ABFA05E07A7BB97A5C
